{
  "_format": "hh-sol-artifact-1",
  "contractName": "AllianceBlockToken",
  "sourceName": "contracts/token/AllianceBlockToken.sol",
  "abi": [
    {
      "inputs": [],
      "stateMutability": "nonpayable",
      "type": "constructor"
    },
    {
      "anonymous": false,
      "inputs": [
        {
          "indexed": true,
          "internalType": "address",
          "name": "owner",
          "type": "address"
        },
        {
          "indexed": true,
          "internalType": "address",
          "name": "spender",
          "type": "address"
        },
        {
          "indexed": false,
          "internalType": "uint256",
          "name": "value",
          "type": "uint256"
        }
      ],
      "name": "Approval",
      "type": "event"
    },
    {
      "anonymous": false,
      "inputs": [
        {
          "indexed": false,
          "internalType": "address",
          "name": "account",
          "type": "address"
        }
      ],
      "name": "Paused",
      "type": "event"
    },
    {
      "anonymous": false,
      "inputs": [
        {
          "indexed": true,
          "internalType": "bytes32",
          "name": "role",
          "type": "bytes32"
        },
        {
          "indexed": true,
          "internalType": "bytes32",
          "name": "previousAdminRole",
          "type": "bytes32"
        },
        {
          "indexed": true,
          "internalType": "bytes32",
          "name": "newAdminRole",
          "type": "bytes32"
        }
      ],
      "name": "RoleAdminChanged",
      "type": "event"
    },
    {
      "anonymous": false,
      "inputs": [
        {
          "indexed": true,
          "internalType": "bytes32",
          "name": "role",
          "type": "bytes32"
        },
        {
          "indexed": true,
          "internalType": "address",
          "name": "account",
          "type": "address"
        },
        {
          "indexed": true,
          "internalType": "address",
          "name": "sender",
          "type": "address"
        }
      ],
      "name": "RoleGranted",
      "type": "event"
    },
    {
      "anonymous": false,
      "inputs": [
        {
          "indexed": true,
          "internalType": "bytes32",
          "name": "role",
          "type": "bytes32"
        },
        {
          "indexed": true,
          "internalType": "address",
          "name": "account",
          "type": "address"
        },
        {
          "indexed": true,
          "internalType": "address",
          "name": "sender",
          "type": "address"
        }
      ],
      "name": "RoleRevoked",
      "type": "event"
    },
    {
      "anonymous": false,
      "inputs": [
        {
          "indexed": true,
          "internalType": "address",
          "name": "from",
          "type": "address"
        },
        {
          "indexed": true,
          "internalType": "address",
          "name": "to",
          "type": "address"
        },
        {
          "indexed": false,
          "internalType": "uint256",
          "name": "value",
          "type": "uint256"
        }
      ],
      "name": "Transfer",
      "type": "event"
    },
    {
      "anonymous": false,
      "inputs": [
        {
          "indexed": false,
          "internalType": "address",
          "name": "account",
          "type": "address"
        }
      ],
      "name": "Unpaused",
      "type": "event"
    },
    {
      "inputs": [],
      "name": "DEFAULT_ADMIN_ROLE",
      "outputs": [
        {
          "internalType": "bytes32",
          "name": "",
          "type": "bytes32"
        }
      ],
      "stateMutability": "view",
      "type": "function"
    },
    {
      "inputs": [],
      "name": "MINTER_ROLE",
      "outputs": [
        {
          "internalType": "bytes32",
          "name": "",
          "type": "bytes32"
        }
      ],
      "stateMutability": "view",
      "type": "function"
    },
    {
      "inputs": [],
      "name": "PAUSER_ROLE",
      "outputs": [
        {
          "internalType": "bytes32",
          "name": "",
          "type": "bytes32"
        }
      ],
      "stateMutability": "view",
      "type": "function"
    },
    {
      "inputs": [
        {
          "internalType": "address",
          "name": "owner",
          "type": "address"
        },
        {
          "internalType": "address",
          "name": "spender",
          "type": "address"
        }
      ],
      "name": "allowance",
      "outputs": [
        {
          "internalType": "uint256",
          "name": "",
          "type": "uint256"
        }
      ],
      "stateMutability": "view",
      "type": "function"
    },
    {
      "inputs": [
        {
          "internalType": "address",
          "name": "spender",
          "type": "address"
        },
        {
          "internalType": "uint256",
          "name": "amount",
          "type": "uint256"
        }
      ],
      "name": "approve",
      "outputs": [
        {
          "internalType": "bool",
          "name": "",
          "type": "bool"
        }
      ],
      "stateMutability": "nonpayable",
      "type": "function"
    },
    {
      "inputs": [
        {
          "internalType": "address",
          "name": "account",
          "type": "address"
        }
      ],
      "name": "balanceOf",
      "outputs": [
        {
          "internalType": "uint256",
          "name": "",
          "type": "uint256"
        }
      ],
      "stateMutability": "view",
      "type": "function"
    },
    {
      "inputs": [
        {
          "internalType": "uint256",
          "name": "amount",
          "type": "uint256"
        }
      ],
      "name": "burn",
      "outputs": [],
      "stateMutability": "nonpayable",
      "type": "function"
    },
    {
      "inputs": [
        {
          "internalType": "address",
          "name": "account",
          "type": "address"
        },
        {
          "internalType": "uint256",
          "name": "amount",
          "type": "uint256"
        }
      ],
      "name": "burnFrom",
      "outputs": [],
      "stateMutability": "nonpayable",
      "type": "function"
    },
    {
      "inputs": [],
      "name": "decimals",
      "outputs": [
        {
          "internalType": "uint8",
          "name": "",
          "type": "uint8"
        }
      ],
      "stateMutability": "view",
      "type": "function"
    },
    {
      "inputs": [
        {
          "internalType": "address",
          "name": "spender",
          "type": "address"
        },
        {
          "internalType": "uint256",
          "name": "subtractedValue",
          "type": "uint256"
        }
      ],
      "name": "decreaseAllowance",
      "outputs": [
        {
          "internalType": "bool",
          "name": "",
          "type": "bool"
        }
      ],
      "stateMutability": "nonpayable",
      "type": "function"
    },
    {
      "inputs": [
        {
          "internalType": "bytes32",
          "name": "role",
          "type": "bytes32"
        }
      ],
      "name": "getRoleAdmin",
      "outputs": [
        {
          "internalType": "bytes32",
          "name": "",
          "type": "bytes32"
        }
      ],
      "stateMutability": "view",
      "type": "function"
    },
    {
      "inputs": [
        {
          "internalType": "bytes32",
          "name": "role",
          "type": "bytes32"
        },
        {
          "internalType": "uint256",
          "name": "index",
          "type": "uint256"
        }
      ],
      "name": "getRoleMember",
      "outputs": [
        {
          "internalType": "address",
          "name": "",
          "type": "address"
        }
      ],
      "stateMutability": "view",
      "type": "function"
    },
    {
      "inputs": [
        {
          "internalType": "bytes32",
          "name": "role",
          "type": "bytes32"
        }
      ],
      "name": "getRoleMemberCount",
      "outputs": [
        {
          "internalType": "uint256",
          "name": "",
          "type": "uint256"
        }
      ],
      "stateMutability": "view",
      "type": "function"
    },
    {
      "inputs": [
        {
          "internalType": "bytes32",
          "name": "role",
          "type": "bytes32"
        },
        {
          "internalType": "address",
          "name": "account",
          "type": "address"
        }
      ],
      "name": "grantRole",
      "outputs": [],
      "stateMutability": "nonpayable",
      "type": "function"
    },
    {
      "inputs": [
        {
          "internalType": "bytes32",
          "name": "role",
          "type": "bytes32"
        },
        {
          "internalType": "address",
          "name": "account",
          "type": "address"
        }
      ],
      "name": "hasRole",
      "outputs": [
        {
          "internalType": "bool",
          "name": "",
          "type": "bool"
        }
      ],
      "stateMutability": "view",
      "type": "function"
    },
    {
      "inputs": [
        {
          "internalType": "address",
          "name": "spender",
          "type": "address"
        },
        {
          "internalType": "uint256",
          "name": "addedValue",
          "type": "uint256"
        }
      ],
      "name": "increaseAllowance",
      "outputs": [
        {
          "internalType": "bool",
          "name": "",
          "type": "bool"
        }
      ],
      "stateMutability": "nonpayable",
      "type": "function"
    },
    {
      "inputs": [
        {
          "internalType": "address",
          "name": "to",
          "type": "address"
        },
        {
          "internalType": "uint256",
          "name": "amount",
          "type": "uint256"
        }
      ],
      "name": "mint",
      "outputs": [],
      "stateMutability": "nonpayable",
      "type": "function"
    },
    {
      "inputs": [],
      "name": "name",
      "outputs": [
        {
          "internalType": "string",
          "name": "",
          "type": "string"
        }
      ],
      "stateMutability": "view",
      "type": "function"
    },
    {
      "inputs": [],
      "name": "pause",
      "outputs": [],
      "stateMutability": "nonpayable",
      "type": "function"
    },
    {
      "inputs": [],
      "name": "paused",
      "outputs": [
        {
          "internalType": "bool",
          "name": "",
          "type": "bool"
        }
      ],
      "stateMutability": "view",
      "type": "function"
    },
    {
      "inputs": [
        {
          "internalType": "address",
          "name": "owner",
          "type": "address"
        }
      ],
      "name": "removeMinterRole",
      "outputs": [],
      "stateMutability": "nonpayable",
      "type": "function"
    },
    {
      "inputs": [
        {
          "internalType": "bytes32",
          "name": "role",
          "type": "bytes32"
        },
        {
          "internalType": "address",
          "name": "account",
          "type": "address"
        }
      ],
      "name": "renounceRole",
      "outputs": [],
      "stateMutability": "nonpayable",
      "type": "function"
    },
    {
      "inputs": [
        {
          "internalType": "bytes32",
          "name": "role",
          "type": "bytes32"
        },
        {
          "internalType": "address",
          "name": "account",
          "type": "address"
        }
      ],
      "name": "revokeRole",
      "outputs": [],
      "stateMutability": "nonpayable",
      "type": "function"
    },
    {
      "inputs": [
        {
          "internalType": "bytes4",
          "name": "interfaceId",
          "type": "bytes4"
        }
      ],
      "name": "supportsInterface",
      "outputs": [
        {
          "internalType": "bool",
          "name": "",
          "type": "bool"
        }
      ],
      "stateMutability": "view",
      "type": "function"
    },
    {
      "inputs": [],
      "name": "symbol",
      "outputs": [
        {
          "internalType": "string",
          "name": "",
          "type": "string"
        }
      ],
      "stateMutability": "view",
      "type": "function"
    },
    {
      "inputs": [],
      "name": "totalSupply",
      "outputs": [
        {
          "internalType": "uint256",
          "name": "",
          "type": "uint256"
        }
      ],
      "stateMutability": "view",
      "type": "function"
    },
    {
      "inputs": [
        {
          "internalType": "address",
          "name": "to",
          "type": "address"
        },
        {
          "internalType": "uint256",
          "name": "amount",
          "type": "uint256"
        }
      ],
      "name": "transfer",
      "outputs": [
        {
          "internalType": "bool",
          "name": "",
          "type": "bool"
        }
      ],
      "stateMutability": "nonpayable",
      "type": "function"
    },
    {
      "inputs": [
        {
          "internalType": "address",
          "name": "from",
          "type": "address"
        },
        {
          "internalType": "address",
          "name": "to",
          "type": "address"
        },
        {
          "internalType": "uint256",
          "name": "amount",
          "type": "uint256"
        }
      ],
      "name": "transferFrom",
      "outputs": [
        {
          "internalType": "bool",
          "name": "",
          "type": "bool"
        }
      ],
      "stateMutability": "nonpayable",
      "type": "function"
    },
    {
      "inputs": [],
      "name": "unpause",
      "outputs": [],
      "stateMutability": "nonpayable",
      "type": "function"
    }
  ],
  "bytecode": "0x60806040523480156200001157600080fd5b506040518060400160405280601381526020017f416c6c69616e6365426c6f636b20546f6b656e00000000000000000000000000815250604051806040016040528060048152602001631053109560e21b815250818181600590816200007891906200030a565b5060066200008782826200030a565b50506007805460ff1916905550620000a160003362000101565b620000cd7f9f2df0fed2c77648de5860a4cc508cd0818c85b8b8a1ab4ceeef8d981c8956a63362000101565b620000f97f65d7a28e3265b37a6474929f336521b332c1681b933f6cb9f3376673440d862a3362000101565b5050620003d6565b6200010d828262000111565b5050565b6200012882826200015460201b620009dc1760201c565b60008281526001602090815260409091206200014f91839062000a7a620001f4821b17901c565b505050565b6000828152602081815260408083206001600160a01b038516845290915290205460ff166200010d576000828152602081815260408083206001600160a01b03851684529091529020805460ff19166001179055620001b03390565b6001600160a01b0316816001600160a01b0316837f2f8788117e7eff1d82e926ec794901d17c78024a50270940304540a733656f0d60405160405180910390a45050565b60006200020b836001600160a01b03841662000214565b90505b92915050565b60008181526001830160205260408120546200025d575081546001818101845560008481526020808220909301849055845484825282860190935260409020919091556200020e565b5060006200020e565b634e487b7160e01b600052604160045260246000fd5b600181811c908216806200029157607f821691505b602082108103620002b257634e487b7160e01b600052602260045260246000fd5b50919050565b601f8211156200014f57600081815260208120601f850160051c81016020861015620002e15750805b601f850160051c820191505b818110156200030257828155600101620002ed565b505050505050565b81516001600160401b0381111562000326576200032662000266565b6200033e816200033784546200027c565b84620002b8565b602080601f8311600181146200037657600084156200035d5750858301515b600019600386901b1c1916600185901b17855562000302565b600085815260208120601f198616915b82811015620003a75788860151825594840194600190910190840162000386565b5085821015620003c65787850151600019600388901b60f8161c191681555b5050505050600190811b01905550565b611a0280620003e66000396000f3fe608060405234801561001057600080fd5b50600436106101cf5760003560e01c80635c975abb11610104578063a217fddf116100a2578063d539139311610071578063d5391393146103f1578063d547741f14610418578063dd62ed3e1461042b578063e63ab1e91461046457600080fd5b8063a217fddf146103b0578063a457c2d7146103b8578063a9059cbb146103cb578063ca15c873146103de57600080fd5b80638456cb59116100de5780638456cb591461033e5780639010d07c1461034657806391d148541461037157806395d89b41146103a857600080fd5b80635c975abb146102f757806370a082311461030257806379cc67901461032b57600080fd5b8063313ce567116101715780633f4ba83a1161014b5780633f4ba83a146102b657806340c10f19146102be57806342966c68146102d157806354f1e126146102e457600080fd5b8063313ce5671461028157806336568abe1461029057806339509351146102a357600080fd5b806318160ddd116101ad57806318160ddd1461022457806323b872dd14610236578063248a9ca3146102495780632f2ff15d1461026c57600080fd5b806301ffc9a7146101d457806306fdde03146101fc578063095ea7b314610211575b600080fd5b6101e76101e23660046116b6565b61048b565b60405190151581526020015b60405180910390f35b6102046104b6565b6040516101f39190611704565b6101e761021f366004611753565b610548565b6004545b6040519081526020016101f3565b6101e761024436600461177d565b610560565b6102286102573660046117b9565b60009081526020819052604090206001015490565b61027f61027a3660046117d2565b610584565b005b604051601281526020016101f3565b61027f61029e3660046117d2565b6105ae565b6101e76102b1366004611753565b61063f565b61027f61067e565b61027f6102cc366004611753565b610724565b61027f6102df3660046117b9565b6107ca565b61027f6102f23660046117fe565b6107d7565b60075460ff166101e7565b6102286103103660046117fe565b6001600160a01b031660009081526002602052604090205490565b61027f610339366004611753565b610801565b61027f610816565b610359610354366004611819565b6108ba565b6040516001600160a01b0390911681526020016101f3565b6101e761037f3660046117d2565b6000918252602082815260408084206001600160a01b0393909316845291905290205460ff1690565b6102046108d9565b610228600081565b6101e76103c6366004611753565b6108e8565b6101e76103d9366004611753565b610992565b6102286103ec3660046117b9565b6109a0565b6102287f9f2df0fed2c77648de5860a4cc508cd0818c85b8b8a1ab4ceeef8d981c8956a681565b61027f6104263660046117d2565b6109b7565b61022861043936600461183b565b6001600160a01b03918216600090815260036020908152604080832093909416825291909152205490565b6102287f65d7a28e3265b37a6474929f336521b332c1681b933f6cb9f3376673440d862a81565b60006001600160e01b03198216635a05180f60e01b14806104b057506104b082610a8f565b92915050565b6060600580546104c590611865565b80601f01602080910402602001604051908101604052809291908181526020018280546104f190611865565b801561053e5780601f106105135761010080835404028352916020019161053e565b820191906000526020600020905b81548152906001019060200180831161052157829003601f168201915b5050505050905090565b600033610556818585610ac4565b5060019392505050565b60003361056e858285610be8565b610579858585610c7a565b506001949350505050565b60008281526020819052604090206001015461059f81610e5f565b6105a98383610e69565b505050565b6001600160a01b03811633146106315760405162461bcd60e51b815260206004820152602f60248201527f416363657373436f6e74726f6c3a2063616e206f6e6c792072656e6f756e636560448201527f20726f6c657320666f722073656c66000000000000000000000000000000000060648201526084015b60405180910390fd5b61063b8282610e8b565b5050565b3360008181526003602090815260408083206001600160a01b038716845290915281205490919061055690829086906106799087906118b5565b610ac4565b6106a87f65d7a28e3265b37a6474929f336521b332c1681b933f6cb9f3376673440d862a3361037f565b61071a5760405162461bcd60e51b815260206004820152603960248201527f45524332305072657365744d696e7465725061757365723a206d75737420686160448201527f76652070617573657220726f6c6520746f20756e7061757365000000000000006064820152608401610628565b610722610ead565b565b61074e7f9f2df0fed2c77648de5860a4cc508cd0818c85b8b8a1ab4ceeef8d981c8956a63361037f565b6107c05760405162461bcd60e51b815260206004820152603660248201527f45524332305072657365744d696e7465725061757365723a206d75737420686160448201527f7665206d696e74657220726f6c6520746f206d696e74000000000000000000006064820152608401610628565b61063b8282610eff565b6107d43382610fcc565b50565b6107d47f9f2df0fed2c77648de5860a4cc508cd0818c85b8b8a1ab4ceeef8d981c8956a6826109b7565b61080c823383610be8565b61063b8282610fcc565b6108407f65d7a28e3265b37a6474929f336521b332c1681b933f6cb9f3376673440d862a3361037f565b6108b25760405162461bcd60e51b815260206004820152603760248201527f45524332305072657365744d696e7465725061757365723a206d75737420686160448201527f76652070617573657220726f6c6520746f2070617573650000000000000000006064820152608401610628565b61072261110c565b60008281526001602052604081206108d29083611149565b9392505050565b6060600680546104c590611865565b3360008181526003602090815260408083206001600160a01b0387168452909152812054909190838110156109855760405162461bcd60e51b815260206004820152602560248201527f45524332303a2064656372656173656420616c6c6f77616e63652062656c6f7760448201527f207a65726f0000000000000000000000000000000000000000000000000000006064820152608401610628565b6105798286868403610ac4565b600033610556818585610c7a565b60008181526001602052604081206104b090611155565b6000828152602081905260409020600101546109d281610e5f565b6105a98383610e8b565b6000828152602081815260408083206001600160a01b038516845290915290205460ff1661063b576000828152602081815260408083206001600160a01b03851684529091529020805460ff19166001179055610a363390565b6001600160a01b0316816001600160a01b0316837f2f8788117e7eff1d82e926ec794901d17c78024a50270940304540a733656f0d60405160405180910390a45050565b60006108d2836001600160a01b03841661115f565b60006001600160e01b03198216637965db0b60e01b14806104b057506301ffc9a760e01b6001600160e01b03198316146104b0565b6001600160a01b038316610b265760405162461bcd60e51b8152602060048201526024808201527f45524332303a20617070726f76652066726f6d20746865207a65726f206164646044820152637265737360e01b6064820152608401610628565b6001600160a01b038216610b875760405162461bcd60e51b815260206004820152602260248201527f45524332303a20617070726f766520746f20746865207a65726f206164647265604482015261737360f01b6064820152608401610628565b6001600160a01b0383811660008181526003602090815260408083209487168084529482529182902085905590518481527f8c5be1e5ebec7d5bd14f71427d1e84f3dd0314c0f7b2291e5b200ac8c7c3b925910160405180910390a3505050565b6001600160a01b038381166000908152600360209081526040808320938616835292905220546000198114610c745781811015610c675760405162461bcd60e51b815260206004820152601d60248201527f45524332303a20696e73756666696369656e7420616c6c6f77616e63650000006044820152606401610628565b610c748484848403610ac4565b50505050565b6001600160a01b038316610cf65760405162461bcd60e51b815260206004820152602560248201527f45524332303a207472616e736665722066726f6d20746865207a65726f20616460448201527f64726573730000000000000000000000000000000000000000000000000000006064820152608401610628565b6001600160a01b038216610d585760405162461bcd60e51b815260206004820152602360248201527f45524332303a207472616e7366657220746f20746865207a65726f206164647260448201526265737360e81b6064820152608401610628565b610d638383836111ae565b6001600160a01b03831660009081526002602052604090205481811015610df25760405162461bcd60e51b815260206004820152602660248201527f45524332303a207472616e7366657220616d6f756e742065786365656473206260448201527f616c616e636500000000000000000000000000000000000000000000000000006064820152608401610628565b6001600160a01b0380851660008181526002602052604080822086860390559286168082529083902080548601905591517fddf252ad1be2c89b69c2b068fc378daa952ba7f163c4a11628f55a4df523b3ef90610e529086815260200190565b60405180910390a3610c74565b6107d481336111b9565b610e7382826109dc565b60008281526001602052604090206105a99082610a7a565b610e95828261122c565b60008281526001602052604090206105a990826112ab565b610eb56112c0565b6007805460ff191690557f5db9ee0a495bf2e6ff9c91a7834c1ba4fdd244a5e8aa4e537bd38aeae4b073aa335b6040516001600160a01b03909116815260200160405180910390a1565b6001600160a01b038216610f555760405162461bcd60e51b815260206004820152601f60248201527f45524332303a206d696e7420746f20746865207a65726f2061646472657373006044820152606401610628565b610f61600083836111ae565b8060046000828254610f7391906118b5565b90915550506001600160a01b0382166000818152600260209081526040808320805486019055518481527fddf252ad1be2c89b69c2b068fc378daa952ba7f163c4a11628f55a4df523b3ef910160405180910390a35050565b6001600160a01b03821661102c5760405162461bcd60e51b815260206004820152602160248201527f45524332303a206275726e2066726f6d20746865207a65726f206164647265736044820152607360f81b6064820152608401610628565b611038826000836111ae565b6001600160a01b038216600090815260026020526040902054818110156110ac5760405162461bcd60e51b815260206004820152602260248201527f45524332303a206275726e20616d6f756e7420657863656564732062616c616e604482015261636560f01b6064820152608401610628565b6001600160a01b03831660008181526002602090815260408083208686039055600480548790039055518581529192917fddf252ad1be2c89b69c2b068fc378daa952ba7f163c4a11628f55a4df523b3ef910160405180910390a3505050565b611114611312565b6007805460ff191660011790557f62e78cea01bee320cd4e420270b5ea74000d11b0c9f74754ebdbfc544b05a258610ee23390565b60006108d28383611365565b60006104b0825490565b60008181526001830160205260408120546111a6575081546001818101845560008481526020808220909301849055845484825282860190935260409020919091556104b0565b5060006104b0565b6105a983838361138f565b6000828152602081815260408083206001600160a01b038516845290915290205460ff1661063b576111ea81611408565b6111f583602061141a565b6040516020016112069291906118c8565b60408051601f198184030181529082905262461bcd60e51b825261062891600401611704565b6000828152602081815260408083206001600160a01b038516845290915290205460ff161561063b576000828152602081815260408083206001600160a01b0385168085529252808320805460ff1916905551339285917ff6391f5c32d9c69d2a47ea670b442974b53935d1edc7fd64eb21e047a839171b9190a45050565b60006108d2836001600160a01b0384166115c3565b60075460ff166107225760405162461bcd60e51b815260206004820152601460248201527f5061757361626c653a206e6f74207061757365640000000000000000000000006044820152606401610628565b60075460ff16156107225760405162461bcd60e51b815260206004820152601060248201527f5061757361626c653a20706175736564000000000000000000000000000000006044820152606401610628565b600082600001828154811061137c5761137c611949565b9060005260206000200154905092915050565b60075460ff16156105a95760405162461bcd60e51b815260206004820152602a60248201527f45524332305061757361626c653a20746f6b656e207472616e7366657220776860448201527f696c6520706175736564000000000000000000000000000000000000000000006064820152608401610628565b60606104b06001600160a01b03831660145b6060600061142983600261195f565b6114349060026118b5565b67ffffffffffffffff81111561144c5761144c611976565b6040519080825280601f01601f191660200182016040528015611476576020820181803683370190505b509050600360fc1b8160008151811061149157611491611949565b60200101906001600160f81b031916908160001a905350600f60fb1b816001815181106114c0576114c0611949565b60200101906001600160f81b031916908160001a90535060006114e484600261195f565b6114ef9060016118b5565b90505b6001811115611574577f303132333435363738396162636465660000000000000000000000000000000085600f166010811061153057611530611949565b1a60f81b82828151811061154657611546611949565b60200101906001600160f81b031916908160001a90535060049490941c9361156d8161198c565b90506114f2565b5083156108d25760405162461bcd60e51b815260206004820181905260248201527f537472696e67733a20686578206c656e67746820696e73756666696369656e746044820152606401610628565b600081815260018301602052604081205480156116ac5760006115e76001836119a3565b85549091506000906115fb906001906119a3565b905081811461166057600086600001828154811061161b5761161b611949565b906000526020600020015490508087600001848154811061163e5761163e611949565b6000918252602080832090910192909255918252600188019052604090208390555b8554869080611671576116716119b6565b6001900381819060005260206000200160009055905585600101600086815260200190815260200160002060009055600193505050506104b0565b60009150506104b0565b6000602082840312156116c857600080fd5b81356001600160e01b0319811681146108d257600080fd5b60005b838110156116fb5781810151838201526020016116e3565b50506000910152565b60208152600082518060208401526117238160408501602087016116e0565b601f01601f19169190910160400192915050565b80356001600160a01b038116811461174e57600080fd5b919050565b6000806040838503121561176657600080fd5b61176f83611737565b946020939093013593505050565b60008060006060848603121561179257600080fd5b61179b84611737565b92506117a960208501611737565b9150604084013590509250925092565b6000602082840312156117cb57600080fd5b5035919050565b600080604083850312156117e557600080fd5b823591506117f560208401611737565b90509250929050565b60006020828403121561181057600080fd5b6108d282611737565b6000806040838503121561182c57600080fd5b50508035926020909101359150565b6000806040838503121561184e57600080fd5b61185783611737565b91506117f560208401611737565b600181811c9082168061187957607f821691505b60208210810361189957634e487b7160e01b600052602260045260246000fd5b50919050565b634e487b7160e01b600052601160045260246000fd5b808201808211156104b0576104b061189f565b7f416363657373436f6e74726f6c3a206163636f756e74200000000000000000008152600083516119008160178501602088016116e0565b7f206973206d697373696e6720726f6c6520000000000000000000000000000000601791840191820152835161193d8160288401602088016116e0565b01602801949350505050565b634e487b7160e01b600052603260045260246000fd5b80820281158282048414176104b0576104b061189f565b634e487b7160e01b600052604160045260246000fd5b60008161199b5761199b61189f565b506000190190565b818103818111156104b0576104b061189f565b634e487b7160e01b600052603160045260246000fdfea2646970667358221220beea2ab24e7f9ba16138fe8cd5775407039e9b4a580be689e6dc0c29410b47bc64736f6c63430008110033",
  "linkReferences": {},
  "deployedLinkReferences": {}
}