{"contracts/Vesting.sol":{"Vesting":{"abi":[{"inputs":[{"internalType":"address","name":"_tokenAddress","type":"address"},{"internalType":"uint256[35]","name":"_cumulativeAmountsToVest","type":"uint256[35]"}],"stateMutability":"nonpayable","type":"constructor"},{"anonymous":false,"inputs":[{"indexed":false,"internalType":"address","name":"recipient","type":"address"},{"indexed":false,"internalType":"uint256","name":"withdrawPercentage","type":"uint256"}],"name":"LogRecipientAdded","type":"event"},{"anonymous":false,"inputs":[{"indexed":false,"internalType":"address","name":"setter","type":"address"},{"indexed":false,"internalType":"uint256","name":"startDate","type":"uint256"}],"name":"LogStartDateSet","type":"event"},{"anonymous":false,"inputs":[{"indexed":false,"internalType":"address","name":"recipient","type":"address"},{"indexed":false,"internalType":"uint256","name":"amount","type":"uint256"}],"name":"LogTokensClaimed","type":"event"},{"anonymous":false,"inputs":[{"indexed":true,"internalType":"address","name":"previousOwner","type":"address"},{"indexed":true,"internalType":"address","name":"newOwner","type":"address"}],"name":"OwnershipTransferred","type":"event"},{"inputs":[{"internalType":"address[]","name":"_recipients","type":"address[]"},{"internalType":"uint256[]","name":"_withdrawPercentages","type":"uint256[]"}],"name":"addMultipleRecipients","outputs":[],"stateMutability":"nonpayable","type":"function"},{"inputs":[{"internalType":"address","name":"_recipientAddress","type":"address"},{"internalType":"uint256","name":"_withdrawPercentage","type":"uint256"}],"name":"addRecipient","outputs":[],"stateMutability":"nonpayable","type":"function"},{"inputs":[],"name":"claim","outputs":[],"stateMutability":"nonpayable","type":"function"},{"inputs":[{"internalType":"uint256","name":"","type":"uint256"}],"name":"cumulativeAmountsToVest","outputs":[{"internalType":"uint256","name":"","type":"uint256"}],"stateMutability":"view","type":"function"},{"inputs":[],"name":"hasClaim","outputs":[{"internalType":"uint256","name":"_owedAmount","type":"uint256"}],"stateMutability":"view","type":"function"},{"inputs":[],"name":"owner","outputs":[{"internalType":"address","name":"","type":"address"}],"stateMutability":"view","type":"function"},{"inputs":[{"internalType":"address","name":"","type":"address"}],"name":"recipients","outputs":[{"internalType":"uint256","name":"withdrawnAmount","type":"uint256"},{"internalType":"uint256","name":"withdrawPercentage","type":"uint256"}],"stateMutability":"view","type":"function"},{"inputs":[],"name":"renounceOwnership","outputs":[],"stateMutability":"nonpayable","type":"function"},{"inputs":[{"internalType":"uint256","name":"_startDate","type":"uint256"}],"name":"setStartDate","outputs":[],"stateMutability":"nonpayable","type":"function"},{"inputs":[],"name":"startDate","outputs":[{"internalType":"uint256","name":"","type":"uint256"}],"stateMutability":"view","type":"function"},{"inputs":[],"name":"totalPercentages","outputs":[{"internalType":"uint256","name":"","type":"uint256"}],"stateMutability":"view","type":"function"},{"inputs":[],"name":"totalRecipients","outputs":[{"internalType":"uint256","name":"","type":"uint256"}],"stateMutability":"view","type":"function"},{"inputs":[{"internalType":"address","name":"newOwner","type":"address"}],"name":"transferOwnership","outputs":[],"stateMutability":"nonpayable","type":"function"}],"devdoc":{"kind":"dev","methods":{"addMultipleRecipients(address[],uint256[])":{"details":"Function add  multiple recipients to the vesting contract","params":{"_recipients":"Array of recipient addresses. The arrya length should be less than 230, otherwise it will overflow the gas limit","_withdrawPercentages":"Corresponding percentages of the recipients"}},"addRecipient(address,uint256)":{"details":"Function add recipient to the vesting contract","params":{"_recipientAddress":"The address of the recipient","_withdrawPercentage":"The percentage that the recipient should receive in each vesting period"}},"claim()":{"details":"Function that withdraws all available tokens for the current period"},"constructor":{"params":{"_cumulativeAmountsToVest":"The cumulative amounts for each vesting period","_tokenAddress":"The address of the ALBT token"}},"hasClaim()":{"details":"Function that returns the amount that the user can withdraw at the current period.","returns":{"_owedAmount":"The amount that the user can withdraw at the current period."}},"owner()":{"details":"Returns the address of the current owner."},"renounceOwnership()":{"details":"Leaves the contract without owner. It will not be possible to call `onlyOwner` functions anymore. Can only be called by the current owner. NOTE: Renouncing ownership will leave the contract without an owner, thereby removing any functionality that is only available to the owner."},"setStartDate(uint256)":{"details":"Function that sets the start date of the Vesting","params":{"_startDate":"The start date of the veseting presented as a timestamp"}},"transferOwnership(address)":{"details":"Transfers ownership of the contract to a new account (`newOwner`). Can only be called by the current owner."}},"version":1},"evm":{"bytecode":{"linkReferences":{"contracts/PercentageCalculator.sol":{"PercentageCalculator":[{"length":20,"start":3009}]}},"object":"60806040523480156200001157600080fd5b506040516200102b3803806200102b833981016040819052620000349162000199565b6200003f33620000d9565b6001600160a01b038216620000a65760405162461bcd60e51b815260206004820152602360248201527f546f6b656e20416464726573732063616e2774206265207a65726f206164647260448201526265737360e81b606482015260840160405180910390fd5b602680546001600160a01b0319166001600160a01b038416179055620000d0600282602362000129565b50505062000242565b600080546001600160a01b038381166001600160a01b0319831681178455604051919092169283917f8be0079c531659141344cd1fd0a4f28419497f9722a3daafe3b4186f6b6457e09190a35050565b82602381019282156200015a579160200282015b828111156200015a5782518255916020019190600101906200013d565b50620001689291506200016c565b5090565b5b808211156200016857600081556001016200016d565b634e487b7160e01b600052604160045260246000fd5b600080610480808486031215620001af57600080fd5b83516001600160a01b0381168114620001c757600080fd5b92506020603f85018613620001db57600080fd5b60405161046081016001600160401b038111828210171562000201576200020162000183565b6040529185019180878411156200021757600080fd5b8287015b848110156200023457805182529083019083016200021b565b509497909650945050505050565b610dd980620002526000396000f3fe608060405234801561001057600080fd5b50600436106100df5760003560e01c806382d95df51161008c578063eb82031211610066578063eb82031214610177578063f2fde38b146101b3578063f4f8495b146101c6578063f7982243146101cf57600080fd5b806382d95df5146101365780638da5cb5b14610149578063e3eb15991461016457600080fd5b80634e71d92d116100bd5780634e71d92d1461011d57806356fcdae314610125578063715018a61461012e57600080fd5b80630b97bc86146100e4578063114a76a1146101005780633e2c3a5a14610115575b600080fd5b6100ed60015481565b6040519081526020015b60405180910390f35b61011361010e366004610bb0565b6101e2565b005b6100ed61033c565b61011361035e565b6100ed60255481565b61011361052a565b610113610144366004610c70565b61053e565b6000546040516001600160a01b0390911681526020016100f7565b6100ed610172366004610c70565b6105d7565b61019e610185366004610c89565b6028602052600090815260409020805460019091015482565b604080519283526020830191909152016100f7565b6101136101c1366004610c89565b6105ee565b6100ed60275481565b6101136101dd366004610cab565b61067e565b6101ea6108d7565b60e68251106102665760405162461bcd60e51b815260206004820152602860248201527f54686520726563697069656e7473206d757374206265206e6f74206d6f72652060448201527f7468616e2032333000000000000000000000000000000000000000000000000060648201526084015b60405180910390fd5b80518251146102dd5760405162461bcd60e51b815260206004820152602860248201527f5468652074776f2061727279617320617265207769746820646966666572656e60448201527f74206c656e677468000000000000000000000000000000000000000000000000606482015260840161025d565b60005b8251811015610337576103258382815181106102fe576102fe610cd5565b602002602001015183838151811061031857610318610cd5565b602002602001015161067e565b8061032f81610d01565b9150506102e0565b505050565b6000600154421161034d5750600090565b6000610357610931565b5092915050565b6001546000036103b05760405162461bcd60e51b815260206004820152601a60248201527f5468652076657374696e67206861736e27742073746172746564000000000000604482015260640161025d565b6001544210156104025760405162461bcd60e51b815260206004820152601a60248201527f5468652076657374696e67206861736e27742073746172746564000000000000604482015260640161025d565b60008061040d610931565b33600081815260286020526040808220849055602654905163a9059cbb60e01b815260048101939093526024830185905293955091935090916001600160a01b03169063a9059cbb906044016020604051808303816000875af1158015610478573d6000803e3d6000fd5b505050506040513d601f19601f8201168201806040525081019061049c9190610d1a565b9050806104eb5760405162461bcd60e51b815260206004820152601c60248201527f54686520636c61696d20776173206e6f74207375636365737366756c00000000604482015260640161025d565b60408051338152602081018590527fcb3b287df62322e81cc5b4c1ba9d9f5a449e34069d403b00eb061faed581737b91015b60405180910390a1505050565b6105326108d7565b61053c6000610a56565b565b6105466108d7565b428110156105965760405162461bcd60e51b815260206004820152601f60248201527f537461727420446174652063616e277420626520696e20746865207061737400604482015260640161025d565b600181905560408051338152602081018390527fe5461405d7121c89a6fa291896d72f0514ac8957d0839feae0b904b5065e51a8910160405180910390a150565b600281602381106105e757600080fd5b0154905081565b6105f66108d7565b6001600160a01b0381166106725760405162461bcd60e51b815260206004820152602660248201527f4f776e61626c653a206e6577206f776e657220697320746865207a65726f206160448201527f6464726573730000000000000000000000000000000000000000000000000000606482015260840161025d565b61067b81610a56565b50565b6106866108d7565b80620186a081106106ff5760405162461bcd60e51b815260206004820152602c60248201527f50726f76696465642070657263656e746167652073686f756c64206265206c6560448201527f7373207468616e20313030250000000000000000000000000000000000000000606482015260840161025d565b600081116107755760405162461bcd60e51b815260206004820152602c60248201527f50726f76696465642070657263656e746167652073686f756c6420626520677260448201527f6561746572207468616e20300000000000000000000000000000000000000000606482015260840161025d565b6001600160a01b0383166107f15760405162461bcd60e51b815260206004820152602760248201527f526563657069656e7420416464726573732063616e2774206265207a65726f2060448201527f6164647265737300000000000000000000000000000000000000000000000000606482015260840161025d565b816025546107ff9190610d3c565b6025819055620186a010156108565760405162461bcd60e51b815260206004820152601e60248201527f546f74616c2070657263656e7461676573206578636565647320313030250000604482015260640161025d565b6027805490600061086683610d01565b9091555050604080518082018252600080825260208083018681526001600160a01b0388168084526028835292859020935184555160019093019290925582519081529081018490527f595c5a9418c2ea607b802dfdeac0ce122b959c5eb469f9c0bf86c1e262e7c72f910161051d565b6000546001600160a01b0316331461053c5760405162461bcd60e51b815260206004820181905260248201527f4f776e61626c653a2063616c6c6572206973206e6f7420746865206f776e6572604482015260640161025d565b600080600062278d00600154426109489190610d55565b6109529190610d68565b90506023811061096b5761096860016023610d55565b90505b600073__$542b321ac4500581434ba7ee99683f852f$__63a391c15b6002846023811061099a5761099a610cd5565b0154336000908152602860205260409081902060010154905160e084901b7fffffffff0000000000000000000000000000000000000000000000000000000016815260048101929092526024820152604401602060405180830381865af4158015610a09573d6000803e3d6000fd5b505050506040513d601f19601f82011682018060405250810190610a2d9190610d8a565b3360009081526028602052604081205491925090610a4b9083610d55565b959194509092505050565b600080546001600160a01b038381167fffffffffffffffffffffffff0000000000000000000000000000000000000000831681178455604051919092169283917f8be0079c531659141344cd1fd0a4f28419497f9722a3daafe3b4186f6b6457e09190a35050565b634e487b7160e01b600052604160045260246000fd5b604051601f8201601f1916810167ffffffffffffffff81118282101715610afd57610afd610abe565b604052919050565b600067ffffffffffffffff821115610b1f57610b1f610abe565b5060051b60200190565b80356001600160a01b0381168114610b4057600080fd5b919050565b600082601f830112610b5657600080fd5b81356020610b6b610b6683610b05565b610ad4565b82815260059290921b84018101918181019086841115610b8a57600080fd5b8286015b84811015610ba55780358352918301918301610b8e565b509695505050505050565b60008060408385031215610bc357600080fd5b823567ffffffffffffffff80821115610bdb57600080fd5b818501915085601f830112610bef57600080fd5b81356020610bff610b6683610b05565b82815260059290921b84018101918181019089841115610c1e57600080fd5b948201945b83861015610c4357610c3486610b29565b82529482019490820190610c23565b96505086013592505080821115610c5957600080fd5b50610c6685828601610b45565b9150509250929050565b600060208284031215610c8257600080fd5b5035919050565b600060208284031215610c9b57600080fd5b610ca482610b29565b9392505050565b60008060408385031215610cbe57600080fd5b610cc783610b29565b946020939093013593505050565b634e487b7160e01b600052603260045260246000fd5b634e487b7160e01b600052601160045260246000fd5b600060018201610d1357610d13610ceb565b5060010190565b600060208284031215610d2c57600080fd5b81518015158114610ca457600080fd5b80820180821115610d4f57610d4f610ceb565b92915050565b81810381811115610d4f57610d4f610ceb565b600082610d8557634e487b7160e01b600052601260045260246000fd5b500490565b600060208284031215610d9c57600080fd5b505191905056fea2646970667358221220f2fd00a3445248570d5e27053fbfd7eb929c3d3e5aa07988918acc29a47b25d164736f6c63430008110033","opcodes":"PUSH1 0x80 PUSH1 0x40 MSTORE CALLVALUE DUP1 ISZERO PUSH3 0x11 JUMPI PUSH1 0x0 DUP1 REVERT JUMPDEST POP PUSH1 0x40 MLOAD PUSH3 0x102B CODESIZE SUB DUP1 PUSH3 0x102B DUP4 CODECOPY DUP2 ADD PUSH1 0x40 DUP2 SWAP1 MSTORE PUSH3 0x34 SWAP2 PUSH3 0x199 JUMP JUMPDEST PUSH3 0x3F CALLER PUSH3 0xD9 JUMP JUMPDEST PUSH1 0x1 PUSH1 0x1 PUSH1 0xA0 SHL SUB DUP3 AND PUSH3 0xA6 JUMPI PUSH1 0x40 MLOAD PUSH3 0x461BCD PUSH1 0xE5 SHL DUP2 MSTORE PUSH1 0x20 PUSH1 0x4 DUP3 ADD MSTORE PUSH1 0x23 PUSH1 0x24 DUP3 ADD MSTORE PUSH32 0x546F6B656E20416464726573732063616E2774206265207A65726F2061646472 PUSH1 0x44 DUP3 ADD MSTORE PUSH3 0x657373 PUSH1 0xE8 SHL PUSH1 0x64 DUP3 ADD MSTORE PUSH1 0x84 ADD PUSH1 0x40 MLOAD DUP1 SWAP2 SUB SWAP1 REVERT JUMPDEST PUSH1 0x26 DUP1 SLOAD PUSH1 0x1 PUSH1 0x1 PUSH1 0xA0 SHL SUB NOT AND PUSH1 0x1 PUSH1 0x1 PUSH1 0xA0 SHL SUB DUP5 AND OR SWAP1 SSTORE PUSH3 0xD0 PUSH1 0x2 DUP3 PUSH1 0x23 PUSH3 0x129 JUMP JUMPDEST POP POP POP PUSH3 0x242 JUMP JUMPDEST PUSH1 0x0 DUP1 SLOAD PUSH1 0x1 PUSH1 0x1 PUSH1 0xA0 SHL SUB DUP4 DUP2 AND PUSH1 0x1 PUSH1 0x1 PUSH1 0xA0 SHL SUB NOT DUP4 AND DUP2 OR DUP5 SSTORE PUSH1 0x40 MLOAD SWAP2 SWAP1 SWAP3 AND SWAP3 DUP4 SWAP2 PUSH32 0x8BE0079C531659141344CD1FD0A4F28419497F9722A3DAAFE3B4186F6B6457E0 SWAP2 SWAP1 LOG3 POP POP JUMP JUMPDEST DUP3 PUSH1 0x23 DUP2 ADD SWAP3 DUP3 ISZERO PUSH3 0x15A JUMPI SWAP2 PUSH1 0x20 MUL DUP3 ADD JUMPDEST DUP3 DUP2 GT ISZERO PUSH3 0x15A JUMPI DUP3 MLOAD DUP3 SSTORE SWAP2 PUSH1 0x20 ADD SWAP2 SWAP1 PUSH1 0x1 ADD SWAP1 PUSH3 0x13D JUMP JUMPDEST POP PUSH3 0x168 SWAP3 SWAP2 POP PUSH3 0x16C JUMP JUMPDEST POP SWAP1 JUMP JUMPDEST JUMPDEST DUP1 DUP3 GT ISZERO PUSH3 0x168 JUMPI PUSH1 0x0 DUP2 SSTORE PUSH1 0x1 ADD PUSH3 0x16D JUMP JUMPDEST PUSH4 0x4E487B71 PUSH1 0xE0 SHL PUSH1 0x0 MSTORE PUSH1 0x41 PUSH1 0x4 MSTORE PUSH1 0x24 PUSH1 0x0 REVERT JUMPDEST PUSH1 0x0 DUP1 PUSH2 0x480 DUP1 DUP5 DUP7 SUB SLT ISZERO PUSH3 0x1AF JUMPI PUSH1 0x0 DUP1 REVERT JUMPDEST DUP4 MLOAD PUSH1 0x1 PUSH1 0x1 PUSH1 0xA0 SHL SUB DUP2 AND DUP2 EQ PUSH3 0x1C7 JUMPI PUSH1 0x0 DUP1 REVERT JUMPDEST SWAP3 POP PUSH1 0x20 PUSH1 0x3F DUP6 ADD DUP7 SGT PUSH3 0x1DB JUMPI PUSH1 0x0 DUP1 REVERT JUMPDEST PUSH1 0x40 MLOAD PUSH2 0x460 DUP2 ADD PUSH1 0x1 PUSH1 0x1 PUSH1 0x40 SHL SUB DUP2 GT DUP3 DUP3 LT OR ISZERO PUSH3 0x201 JUMPI PUSH3 0x201 PUSH3 0x183 JUMP JUMPDEST PUSH1 0x40 MSTORE SWAP2 DUP6 ADD SWAP2 DUP1 DUP8 DUP5 GT ISZERO PUSH3 0x217 JUMPI PUSH1 0x0 DUP1 REVERT JUMPDEST DUP3 DUP8 ADD JUMPDEST DUP5 DUP2 LT ISZERO PUSH3 0x234 JUMPI DUP1 MLOAD DUP3 MSTORE SWAP1 DUP4 ADD SWAP1 DUP4 ADD PUSH3 0x21B JUMP JUMPDEST POP SWAP5 SWAP8 SWAP1 SWAP7 POP SWAP5 POP POP POP POP POP JUMP JUMPDEST PUSH2 0xDD9 DUP1 PUSH3 0x252 PUSH1 0x0 CODECOPY PUSH1 0x0 RETURN INVALID PUSH1 0x80 PUSH1 0x40 MSTORE CALLVALUE DUP1 ISZERO PUSH2 0x10 JUMPI PUSH1 0x0 DUP1 REVERT JUMPDEST POP PUSH1 0x4 CALLDATASIZE LT PUSH2 0xDF JUMPI PUSH1 0x0 CALLDATALOAD PUSH1 0xE0 SHR DUP1 PUSH4 0x82D95DF5 GT PUSH2 0x8C JUMPI DUP1 PUSH4 0xEB820312 GT PUSH2 0x66 JUMPI DUP1 PUSH4 0xEB820312 EQ PUSH2 0x177 JUMPI DUP1 PUSH4 0xF2FDE38B EQ PUSH2 0x1B3 JUMPI DUP1 PUSH4 0xF4F8495B EQ PUSH2 0x1C6 JUMPI DUP1 PUSH4 0xF7982243 EQ PUSH2 0x1CF JUMPI PUSH1 0x0 DUP1 REVERT JUMPDEST DUP1 PUSH4 0x82D95DF5 EQ PUSH2 0x136 JUMPI DUP1 PUSH4 0x8DA5CB5B EQ PUSH2 0x149 JUMPI DUP1 PUSH4 0xE3EB1599 EQ PUSH2 0x164 JUMPI PUSH1 0x0 DUP1 REVERT JUMPDEST DUP1 PUSH4 0x4E71D92D GT PUSH2 0xBD JUMPI DUP1 PUSH4 0x4E71D92D EQ PUSH2 0x11D JUMPI DUP1 PUSH4 0x56FCDAE3 EQ PUSH2 0x125 JUMPI DUP1 PUSH4 0x715018A6 EQ PUSH2 0x12E JUMPI PUSH1 0x0 DUP1 REVERT JUMPDEST DUP1 PUSH4 0xB97BC86 EQ PUSH2 0xE4 JUMPI DUP1 PUSH4 0x114A76A1 EQ PUSH2 0x100 JUMPI DUP1 PUSH4 0x3E2C3A5A EQ PUSH2 0x115 JUMPI JUMPDEST PUSH1 0x0 DUP1 REVERT JUMPDEST PUSH2 0xED PUSH1 0x1 SLOAD DUP2 JUMP JUMPDEST PUSH1 0x40 MLOAD SWAP1 DUP2 MSTORE PUSH1 0x20 ADD JUMPDEST PUSH1 0x40 MLOAD DUP1 SWAP2 SUB SWAP1 RETURN JUMPDEST PUSH2 0x113 PUSH2 0x10E CALLDATASIZE PUSH1 0x4 PUSH2 0xBB0 JUMP JUMPDEST PUSH2 0x1E2 JUMP JUMPDEST STOP JUMPDEST PUSH2 0xED PUSH2 0x33C JUMP JUMPDEST PUSH2 0x113 PUSH2 0x35E JUMP JUMPDEST PUSH2 0xED PUSH1 0x25 SLOAD DUP2 JUMP JUMPDEST PUSH2 0x113 PUSH2 0x52A JUMP JUMPDEST PUSH2 0x113 PUSH2 0x144 CALLDATASIZE PUSH1 0x4 PUSH2 0xC70 JUMP JUMPDEST PUSH2 0x53E JUMP JUMPDEST PUSH1 0x0 SLOAD PUSH1 0x40 MLOAD PUSH1 0x1 PUSH1 0x1 PUSH1 0xA0 SHL SUB SWAP1 SWAP2 AND DUP2 MSTORE PUSH1 0x20 ADD PUSH2 0xF7 JUMP JUMPDEST PUSH2 0xED PUSH2 0x172 CALLDATASIZE PUSH1 0x4 PUSH2 0xC70 JUMP JUMPDEST PUSH2 0x5D7 JUMP JUMPDEST PUSH2 0x19E PUSH2 0x185 CALLDATASIZE PUSH1 0x4 PUSH2 0xC89 JUMP JUMPDEST PUSH1 0x28 PUSH1 0x20 MSTORE PUSH1 0x0 SWAP1 DUP2 MSTORE PUSH1 0x40 SWAP1 KECCAK256 DUP1 SLOAD PUSH1 0x1 SWAP1 SWAP2 ADD SLOAD DUP3 JUMP JUMPDEST PUSH1 0x40 DUP1 MLOAD SWAP3 DUP4 MSTORE PUSH1 0x20 DUP4 ADD SWAP2 SWAP1 SWAP2 MSTORE ADD PUSH2 0xF7 JUMP JUMPDEST PUSH2 0x113 PUSH2 0x1C1 CALLDATASIZE PUSH1 0x4 PUSH2 0xC89 JUMP JUMPDEST PUSH2 0x5EE JUMP JUMPDEST PUSH2 0xED PUSH1 0x27 SLOAD DUP2 JUMP JUMPDEST PUSH2 0x113 PUSH2 0x1DD CALLDATASIZE PUSH1 0x4 PUSH2 0xCAB JUMP JUMPDEST PUSH2 0x67E JUMP JUMPDEST PUSH2 0x1EA PUSH2 0x8D7 JUMP JUMPDEST PUSH1 0xE6 DUP3 MLOAD LT PUSH2 0x266 JUMPI PUSH1 0x40 MLOAD PUSH3 0x461BCD PUSH1 0xE5 SHL DUP2 MSTORE PUSH1 0x20 PUSH1 0x4 DUP3 ADD MSTORE PUSH1 0x28 PUSH1 0x24 DUP3 ADD MSTORE PUSH32 0x54686520726563697069656E7473206D757374206265206E6F74206D6F726520 PUSH1 0x44 DUP3 ADD MSTORE PUSH32 0x7468616E20323330000000000000000000000000000000000000000000000000 PUSH1 0x64 DUP3 ADD MSTORE PUSH1 0x84 ADD JUMPDEST PUSH1 0x40 MLOAD DUP1 SWAP2 SUB SWAP1 REVERT JUMPDEST DUP1 MLOAD DUP3 MLOAD EQ PUSH2 0x2DD JUMPI PUSH1 0x40 MLOAD PUSH3 0x461BCD PUSH1 0xE5 SHL DUP2 MSTORE PUSH1 0x20 PUSH1 0x4 DUP3 ADD MSTORE PUSH1 0x28 PUSH1 0x24 DUP3 ADD MSTORE PUSH32 0x5468652074776F2061727279617320617265207769746820646966666572656E PUSH1 0x44 DUP3 ADD MSTORE PUSH32 0x74206C656E677468000000000000000000000000000000000000000000000000 PUSH1 0x64 DUP3 ADD MSTORE PUSH1 0x84 ADD PUSH2 0x25D JUMP JUMPDEST PUSH1 0x0 JUMPDEST DUP3 MLOAD DUP2 LT ISZERO PUSH2 0x337 JUMPI PUSH2 0x325 DUP4 DUP3 DUP2 MLOAD DUP2 LT PUSH2 0x2FE JUMPI PUSH2 0x2FE PUSH2 0xCD5 JUMP JUMPDEST PUSH1 0x20 MUL PUSH1 0x20 ADD ADD MLOAD DUP4 DUP4 DUP2 MLOAD DUP2 LT PUSH2 0x318 JUMPI PUSH2 0x318 PUSH2 0xCD5 JUMP JUMPDEST PUSH1 0x20 MUL PUSH1 0x20 ADD ADD MLOAD PUSH2 0x67E JUMP JUMPDEST DUP1 PUSH2 0x32F DUP2 PUSH2 0xD01 JUMP JUMPDEST SWAP2 POP POP PUSH2 0x2E0 JUMP JUMPDEST POP POP POP JUMP JUMPDEST PUSH1 0x0 PUSH1 0x1 SLOAD TIMESTAMP GT PUSH2 0x34D JUMPI POP PUSH1 0x0 SWAP1 JUMP JUMPDEST PUSH1 0x0 PUSH2 0x357 PUSH2 0x931 JUMP JUMPDEST POP SWAP3 SWAP2 POP POP JUMP JUMPDEST PUSH1 0x1 SLOAD PUSH1 0x0 SUB PUSH2 0x3B0 JUMPI PUSH1 0x40 MLOAD PUSH3 0x461BCD PUSH1 0xE5 SHL DUP2 MSTORE PUSH1 0x20 PUSH1 0x4 DUP3 ADD MSTORE PUSH1 0x1A PUSH1 0x24 DUP3 ADD MSTORE PUSH32 0x5468652076657374696E67206861736E27742073746172746564000000000000 PUSH1 0x44 DUP3 ADD MSTORE PUSH1 0x64 ADD PUSH2 0x25D JUMP JUMPDEST PUSH1 0x1 SLOAD TIMESTAMP LT ISZERO PUSH2 0x402 JUMPI PUSH1 0x40 MLOAD PUSH3 0x461BCD PUSH1 0xE5 SHL DUP2 MSTORE PUSH1 0x20 PUSH1 0x4 DUP3 ADD MSTORE PUSH1 0x1A PUSH1 0x24 DUP3 ADD MSTORE PUSH32 0x5468652076657374696E67206861736E27742073746172746564000000000000 PUSH1 0x44 DUP3 ADD MSTORE PUSH1 0x64 ADD PUSH2 0x25D JUMP JUMPDEST PUSH1 0x0 DUP1 PUSH2 0x40D PUSH2 0x931 JUMP JUMPDEST CALLER PUSH1 0x0 DUP2 DUP2 MSTORE PUSH1 0x28 PUSH1 0x20 MSTORE PUSH1 0x40 DUP1 DUP3 KECCAK256 DUP5 SWAP1 SSTORE PUSH1 0x26 SLOAD SWAP1 MLOAD PUSH4 0xA9059CBB PUSH1 0xE0 SHL DUP2 MSTORE PUSH1 0x4 DUP2 ADD SWAP4 SWAP1 SWAP4 MSTORE PUSH1 0x24 DUP4 ADD DUP6 SWAP1 MSTORE SWAP4 SWAP6 POP SWAP2 SWAP4 POP SWAP1 SWAP2 PUSH1 0x1 PUSH1 0x1 PUSH1 0xA0 SHL SUB AND SWAP1 PUSH4 0xA9059CBB SWAP1 PUSH1 0x44 ADD PUSH1 0x20 PUSH1 0x40 MLOAD DUP1 DUP4 SUB DUP2 PUSH1 0x0 DUP8 GAS CALL ISZERO DUP1 ISZERO PUSH2 0x478 JUMPI RETURNDATASIZE PUSH1 0x0 DUP1 RETURNDATACOPY RETURNDATASIZE PUSH1 0x0 REVERT JUMPDEST POP POP POP POP PUSH1 0x40 MLOAD RETURNDATASIZE PUSH1 0x1F NOT PUSH1 0x1F DUP3 ADD AND DUP3 ADD DUP1 PUSH1 0x40 MSTORE POP DUP2 ADD SWAP1 PUSH2 0x49C SWAP2 SWAP1 PUSH2 0xD1A JUMP JUMPDEST SWAP1 POP DUP1 PUSH2 0x4EB JUMPI PUSH1 0x40 MLOAD PUSH3 0x461BCD PUSH1 0xE5 SHL DUP2 MSTORE PUSH1 0x20 PUSH1 0x4 DUP3 ADD MSTORE PUSH1 0x1C PUSH1 0x24 DUP3 ADD MSTORE PUSH32 0x54686520636C61696D20776173206E6F74207375636365737366756C00000000 PUSH1 0x44 DUP3 ADD MSTORE PUSH1 0x64 ADD PUSH2 0x25D JUMP JUMPDEST PUSH1 0x40 DUP1 MLOAD CALLER DUP2 MSTORE PUSH1 0x20 DUP2 ADD DUP6 SWAP1 MSTORE PUSH32 0xCB3B287DF62322E81CC5B4C1BA9D9F5A449E34069D403B00EB061FAED581737B SWAP2 ADD JUMPDEST PUSH1 0x40 MLOAD DUP1 SWAP2 SUB SWAP1 LOG1 POP POP POP JUMP JUMPDEST PUSH2 0x532 PUSH2 0x8D7 JUMP JUMPDEST PUSH2 0x53C PUSH1 0x0 PUSH2 0xA56 JUMP JUMPDEST JUMP JUMPDEST PUSH2 0x546 PUSH2 0x8D7 JUMP JUMPDEST TIMESTAMP DUP2 LT ISZERO PUSH2 0x596 JUMPI PUSH1 0x40 MLOAD PUSH3 0x461BCD PUSH1 0xE5 SHL DUP2 MSTORE PUSH1 0x20 PUSH1 0x4 DUP3 ADD MSTORE PUSH1 0x1F PUSH1 0x24 DUP3 ADD MSTORE PUSH32 0x537461727420446174652063616E277420626520696E20746865207061737400 PUSH1 0x44 DUP3 ADD MSTORE PUSH1 0x64 ADD PUSH2 0x25D JUMP JUMPDEST PUSH1 0x1 DUP2 SWAP1 SSTORE PUSH1 0x40 DUP1 MLOAD CALLER DUP2 MSTORE PUSH1 0x20 DUP2 ADD DUP4 SWAP1 MSTORE PUSH32 0xE5461405D7121C89A6FA291896D72F0514AC8957D0839FEAE0B904B5065E51A8 SWAP2 ADD PUSH1 0x40 MLOAD DUP1 SWAP2 SUB SWAP1 LOG1 POP JUMP JUMPDEST PUSH1 0x2 DUP2 PUSH1 0x23 DUP2 LT PUSH2 0x5E7 JUMPI PUSH1 0x0 DUP1 REVERT JUMPDEST ADD SLOAD SWAP1 POP DUP2 JUMP JUMPDEST PUSH2 0x5F6 PUSH2 0x8D7 JUMP JUMPDEST PUSH1 0x1 PUSH1 0x1 PUSH1 0xA0 SHL SUB DUP2 AND PUSH2 0x672 JUMPI PUSH1 0x40 MLOAD PUSH3 0x461BCD PUSH1 0xE5 SHL DUP2 MSTORE PUSH1 0x20 PUSH1 0x4 DUP3 ADD MSTORE PUSH1 0x26 PUSH1 0x24 DUP3 ADD MSTORE PUSH32 0x4F776E61626C653A206E6577206F776E657220697320746865207A65726F2061 PUSH1 0x44 DUP3 ADD MSTORE PUSH32 0x6464726573730000000000000000000000000000000000000000000000000000 PUSH1 0x64 DUP3 ADD MSTORE PUSH1 0x84 ADD PUSH2 0x25D JUMP JUMPDEST PUSH2 0x67B DUP2 PUSH2 0xA56 JUMP JUMPDEST POP JUMP JUMPDEST PUSH2 0x686 PUSH2 0x8D7 JUMP JUMPDEST DUP1 PUSH3 0x186A0 DUP2 LT PUSH2 0x6FF JUMPI PUSH1 0x40 MLOAD PUSH3 0x461BCD PUSH1 0xE5 SHL DUP2 MSTORE PUSH1 0x20 PUSH1 0x4 DUP3 ADD MSTORE PUSH1 0x2C PUSH1 0x24 DUP3 ADD MSTORE PUSH32 0x50726F76696465642070657263656E746167652073686F756C64206265206C65 PUSH1 0x44 DUP3 ADD MSTORE PUSH32 0x7373207468616E20313030250000000000000000000000000000000000000000 PUSH1 0x64 DUP3 ADD MSTORE PUSH1 0x84 ADD PUSH2 0x25D JUMP JUMPDEST PUSH1 0x0 DUP2 GT PUSH2 0x775 JUMPI PUSH1 0x40 MLOAD PUSH3 0x461BCD PUSH1 0xE5 SHL DUP2 MSTORE PUSH1 0x20 PUSH1 0x4 DUP3 ADD MSTORE PUSH1 0x2C PUSH1 0x24 DUP3 ADD MSTORE PUSH32 0x50726F76696465642070657263656E746167652073686F756C64206265206772 PUSH1 0x44 DUP3 ADD MSTORE PUSH32 0x6561746572207468616E20300000000000000000000000000000000000000000 PUSH1 0x64 DUP3 ADD MSTORE PUSH1 0x84 ADD PUSH2 0x25D JUMP JUMPDEST PUSH1 0x1 PUSH1 0x1 PUSH1 0xA0 SHL SUB DUP4 AND PUSH2 0x7F1 JUMPI PUSH1 0x40 MLOAD PUSH3 0x461BCD PUSH1 0xE5 SHL DUP2 MSTORE PUSH1 0x20 PUSH1 0x4 DUP3 ADD MSTORE PUSH1 0x27 PUSH1 0x24 DUP3 ADD MSTORE PUSH32 0x526563657069656E7420416464726573732063616E2774206265207A65726F20 PUSH1 0x44 DUP3 ADD MSTORE PUSH32 0x6164647265737300000000000000000000000000000000000000000000000000 PUSH1 0x64 DUP3 ADD MSTORE PUSH1 0x84 ADD PUSH2 0x25D JUMP JUMPDEST DUP2 PUSH1 0x25 SLOAD PUSH2 0x7FF SWAP2 SWAP1 PUSH2 0xD3C JUMP JUMPDEST PUSH1 0x25 DUP2 SWAP1 SSTORE PUSH3 0x186A0 LT ISZERO PUSH2 0x856 JUMPI PUSH1 0x40 MLOAD PUSH3 0x461BCD PUSH1 0xE5 SHL DUP2 MSTORE PUSH1 0x20 PUSH1 0x4 DUP3 ADD MSTORE PUSH1 0x1E PUSH1 0x24 DUP3 ADD MSTORE PUSH32 0x546F74616C2070657263656E7461676573206578636565647320313030250000 PUSH1 0x44 DUP3 ADD MSTORE PUSH1 0x64 ADD PUSH2 0x25D JUMP JUMPDEST PUSH1 0x27 DUP1 SLOAD SWAP1 PUSH1 0x0 PUSH2 0x866 DUP4 PUSH2 0xD01 JUMP JUMPDEST SWAP1 SWAP2 SSTORE POP POP PUSH1 0x40 DUP1 MLOAD DUP1 DUP3 ADD DUP3 MSTORE PUSH1 0x0 DUP1 DUP3 MSTORE PUSH1 0x20 DUP1 DUP4 ADD DUP7 DUP2 MSTORE PUSH1 0x1 PUSH1 0x1 PUSH1 0xA0 SHL SUB DUP9 AND DUP1 DUP5 MSTORE PUSH1 0x28 DUP4 MSTORE SWAP3 DUP6 SWAP1 KECCAK256 SWAP4 MLOAD DUP5 SSTORE MLOAD PUSH1 0x1 SWAP1 SWAP4 ADD SWAP3 SWAP1 SWAP3 SSTORE DUP3 MLOAD SWAP1 DUP2 MSTORE SWAP1 DUP2 ADD DUP5 SWAP1 MSTORE PUSH32 0x595C5A9418C2EA607B802DFDEAC0CE122B959C5EB469F9C0BF86C1E262E7C72F SWAP2 ADD PUSH2 0x51D JUMP JUMPDEST PUSH1 0x0 SLOAD PUSH1 0x1 PUSH1 0x1 PUSH1 0xA0 SHL SUB AND CALLER EQ PUSH2 0x53C JUMPI PUSH1 0x40 MLOAD PUSH3 0x461BCD PUSH1 0xE5 SHL DUP2 MSTORE PUSH1 0x20 PUSH1 0x4 DUP3 ADD DUP2 SWAP1 MSTORE PUSH1 0x24 DUP3 ADD MSTORE PUSH32 0x4F776E61626C653A2063616C6C6572206973206E6F7420746865206F776E6572 PUSH1 0x44 DUP3 ADD MSTORE PUSH1 0x64 ADD PUSH2 0x25D JUMP JUMPDEST PUSH1 0x0 DUP1 PUSH1 0x0 PUSH3 0x278D00 PUSH1 0x1 SLOAD TIMESTAMP PUSH2 0x948 SWAP2 SWAP1 PUSH2 0xD55 JUMP JUMPDEST PUSH2 0x952 SWAP2 SWAP1 PUSH2 0xD68 JUMP JUMPDEST SWAP1 POP PUSH1 0x23 DUP2 LT PUSH2 0x96B JUMPI PUSH2 0x968 PUSH1 0x1 PUSH1 0x23 PUSH2 0xD55 JUMP JUMPDEST SWAP1 POP JUMPDEST PUSH1 0x0 PUSH20 0x0 PUSH4 0xA391C15B PUSH1 0x2 DUP5 PUSH1 0x23 DUP2 LT PUSH2 0x99A JUMPI PUSH2 0x99A PUSH2 0xCD5 JUMP JUMPDEST ADD SLOAD CALLER PUSH1 0x0 SWAP1 DUP2 MSTORE PUSH1 0x28 PUSH1 0x20 MSTORE PUSH1 0x40 SWAP1 DUP2 SWAP1 KECCAK256 PUSH1 0x1 ADD SLOAD SWAP1 MLOAD PUSH1 0xE0 DUP5 SWAP1 SHL PUSH32 0xFFFFFFFF00000000000000000000000000000000000000000000000000000000 AND DUP2 MSTORE PUSH1 0x4 DUP2 ADD SWAP3 SWAP1 SWAP3 MSTORE PUSH1 0x24 DUP3 ADD MSTORE PUSH1 0x44 ADD PUSH1 0x20 PUSH1 0x40 MLOAD DUP1 DUP4 SUB DUP2 DUP7 GAS DELEGATECALL ISZERO DUP1 ISZERO PUSH2 0xA09 JUMPI RETURNDATASIZE PUSH1 0x0 DUP1 RETURNDATACOPY RETURNDATASIZE PUSH1 0x0 REVERT JUMPDEST POP POP POP POP PUSH1 0x40 MLOAD RETURNDATASIZE PUSH1 0x1F NOT PUSH1 0x1F DUP3 ADD AND DUP3 ADD DUP1 PUSH1 0x40 MSTORE POP DUP2 ADD SWAP1 PUSH2 0xA2D SWAP2 SWAP1 PUSH2 0xD8A JUMP JUMPDEST CALLER PUSH1 0x0 SWAP1 DUP2 MSTORE PUSH1 0x28 PUSH1 0x20 MSTORE PUSH1 0x40 DUP2 KECCAK256 SLOAD SWAP2 SWAP3 POP SWAP1 PUSH2 0xA4B SWAP1 DUP4 PUSH2 0xD55 JUMP JUMPDEST SWAP6 SWAP2 SWAP5 POP SWAP1 SWAP3 POP POP POP JUMP JUMPDEST PUSH1 0x0 DUP1 SLOAD PUSH1 0x1 PUSH1 0x1 PUSH1 0xA0 SHL SUB DUP4 DUP2 AND PUSH32 0xFFFFFFFFFFFFFFFFFFFFFFFF0000000000000000000000000000000000000000 DUP4 AND DUP2 OR DUP5 SSTORE PUSH1 0x40 MLOAD SWAP2 SWAP1 SWAP3 AND SWAP3 DUP4 SWAP2 PUSH32 0x8BE0079C531659141344CD1FD0A4F28419497F9722A3DAAFE3B4186F6B6457E0 SWAP2 SWAP1 LOG3 POP POP JUMP JUMPDEST PUSH4 0x4E487B71 PUSH1 0xE0 SHL PUSH1 0x0 MSTORE PUSH1 0x41 PUSH1 0x4 MSTORE PUSH1 0x24 PUSH1 0x0 REVERT JUMPDEST PUSH1 0x40 MLOAD PUSH1 0x1F DUP3 ADD PUSH1 0x1F NOT AND DUP2 ADD PUSH8 0xFFFFFFFFFFFFFFFF DUP2 GT DUP3 DUP3 LT OR ISZERO PUSH2 0xAFD JUMPI PUSH2 0xAFD PUSH2 0xABE JUMP JUMPDEST PUSH1 0x40 MSTORE SWAP2 SWAP1 POP JUMP JUMPDEST PUSH1 0x0 PUSH8 0xFFFFFFFFFFFFFFFF DUP3 GT ISZERO PUSH2 0xB1F JUMPI PUSH2 0xB1F PUSH2 0xABE JUMP JUMPDEST POP PUSH1 0x5 SHL PUSH1 0x20 ADD SWAP1 JUMP JUMPDEST DUP1 CALLDATALOAD PUSH1 0x1 PUSH1 0x1 PUSH1 0xA0 SHL SUB DUP2 AND DUP2 EQ PUSH2 0xB40 JUMPI PUSH1 0x0 DUP1 REVERT JUMPDEST SWAP2 SWAP1 POP JUMP JUMPDEST PUSH1 0x0 DUP3 PUSH1 0x1F DUP4 ADD SLT PUSH2 0xB56 JUMPI PUSH1 0x0 DUP1 REVERT JUMPDEST DUP2 CALLDATALOAD PUSH1 0x20 PUSH2 0xB6B PUSH2 0xB66 DUP4 PUSH2 0xB05 JUMP JUMPDEST PUSH2 0xAD4 JUMP JUMPDEST DUP3 DUP2 MSTORE PUSH1 0x5 SWAP3 SWAP1 SWAP3 SHL DUP5 ADD DUP2 ADD SWAP2 DUP2 DUP2 ADD SWAP1 DUP7 DUP5 GT ISZERO PUSH2 0xB8A JUMPI PUSH1 0x0 DUP1 REVERT JUMPDEST DUP3 DUP7 ADD JUMPDEST DUP5 DUP2 LT ISZERO PUSH2 0xBA5 JUMPI DUP1 CALLDATALOAD DUP4 MSTORE SWAP2 DUP4 ADD SWAP2 DUP4 ADD PUSH2 0xB8E JUMP JUMPDEST POP SWAP7 SWAP6 POP POP POP POP POP POP JUMP JUMPDEST PUSH1 0x0 DUP1 PUSH1 0x40 DUP4 DUP6 SUB SLT ISZERO PUSH2 0xBC3 JUMPI PUSH1 0x0 DUP1 REVERT JUMPDEST DUP3 CALLDATALOAD PUSH8 0xFFFFFFFFFFFFFFFF DUP1 DUP3 GT ISZERO PUSH2 0xBDB JUMPI PUSH1 0x0 DUP1 REVERT JUMPDEST DUP2 DUP6 ADD SWAP2 POP DUP6 PUSH1 0x1F DUP4 ADD SLT PUSH2 0xBEF JUMPI PUSH1 0x0 DUP1 REVERT JUMPDEST DUP2 CALLDATALOAD PUSH1 0x20 PUSH2 0xBFF PUSH2 0xB66 DUP4 PUSH2 0xB05 JUMP JUMPDEST DUP3 DUP2 MSTORE PUSH1 0x5 SWAP3 SWAP1 SWAP3 SHL DUP5 ADD DUP2 ADD SWAP2 DUP2 DUP2 ADD SWAP1 DUP10 DUP5 GT ISZERO PUSH2 0xC1E JUMPI PUSH1 0x0 DUP1 REVERT JUMPDEST SWAP5 DUP3 ADD SWAP5 JUMPDEST DUP4 DUP7 LT ISZERO PUSH2 0xC43 JUMPI PUSH2 0xC34 DUP7 PUSH2 0xB29 JUMP JUMPDEST DUP3 MSTORE SWAP5 DUP3 ADD SWAP5 SWAP1 DUP3 ADD SWAP1 PUSH2 0xC23 JUMP JUMPDEST SWAP7 POP POP DUP7 ADD CALLDATALOAD SWAP3 POP POP DUP1 DUP3 GT ISZERO PUSH2 0xC59 JUMPI PUSH1 0x0 DUP1 REVERT JUMPDEST POP PUSH2 0xC66 DUP6 DUP3 DUP7 ADD PUSH2 0xB45 JUMP JUMPDEST SWAP2 POP POP SWAP3 POP SWAP3 SWAP1 POP JUMP JUMPDEST PUSH1 0x0 PUSH1 0x20 DUP3 DUP5 SUB SLT ISZERO PUSH2 0xC82 JUMPI PUSH1 0x0 DUP1 REVERT JUMPDEST POP CALLDATALOAD SWAP2 SWAP1 POP JUMP JUMPDEST PUSH1 0x0 PUSH1 0x20 DUP3 DUP5 SUB SLT ISZERO PUSH2 0xC9B JUMPI PUSH1 0x0 DUP1 REVERT JUMPDEST PUSH2 0xCA4 DUP3 PUSH2 0xB29 JUMP JUMPDEST SWAP4 SWAP3 POP POP POP JUMP JUMPDEST PUSH1 0x0 DUP1 PUSH1 0x40 DUP4 DUP6 SUB SLT ISZERO PUSH2 0xCBE JUMPI PUSH1 0x0 DUP1 REVERT JUMPDEST PUSH2 0xCC7 DUP4 PUSH2 0xB29 JUMP JUMPDEST SWAP5 PUSH1 0x20 SWAP4 SWAP1 SWAP4 ADD CALLDATALOAD SWAP4 POP POP POP JUMP JUMPDEST PUSH4 0x4E487B71 PUSH1 0xE0 SHL PUSH1 0x0 MSTORE PUSH1 0x32 PUSH1 0x4 MSTORE PUSH1 0x24 PUSH1 0x0 REVERT JUMPDEST PUSH4 0x4E487B71 PUSH1 0xE0 SHL PUSH1 0x0 MSTORE PUSH1 0x11 PUSH1 0x4 MSTORE PUSH1 0x24 PUSH1 0x0 REVERT JUMPDEST PUSH1 0x0 PUSH1 0x1 DUP3 ADD PUSH2 0xD13 JUMPI PUSH2 0xD13 PUSH2 0xCEB JUMP JUMPDEST POP PUSH1 0x1 ADD SWAP1 JUMP JUMPDEST PUSH1 0x0 PUSH1 0x20 DUP3 DUP5 SUB SLT ISZERO PUSH2 0xD2C JUMPI PUSH1 0x0 DUP1 REVERT JUMPDEST DUP2 MLOAD DUP1 ISZERO ISZERO DUP2 EQ PUSH2 0xCA4 JUMPI PUSH1 0x0 DUP1 REVERT JUMPDEST DUP1 DUP3 ADD DUP1 DUP3 GT ISZERO PUSH2 0xD4F JUMPI PUSH2 0xD4F PUSH2 0xCEB JUMP JUMPDEST SWAP3 SWAP2 POP POP JUMP JUMPDEST DUP2 DUP2 SUB DUP2 DUP2 GT ISZERO PUSH2 0xD4F JUMPI PUSH2 0xD4F PUSH2 0xCEB JUMP JUMPDEST PUSH1 0x0 DUP3 PUSH2 0xD85 JUMPI PUSH4 0x4E487B71 PUSH1 0xE0 SHL PUSH1 0x0 MSTORE PUSH1 0x12 PUSH1 0x4 MSTORE PUSH1 0x24 PUSH1 0x0 REVERT JUMPDEST POP DIV SWAP1 JUMP JUMPDEST PUSH1 0x0 PUSH1 0x20 DUP3 DUP5 SUB SLT ISZERO PUSH2 0xD9C JUMPI PUSH1 0x0 DUP1 REVERT JUMPDEST POP MLOAD SWAP2 SWAP1 POP JUMP INVALID LOG2 PUSH5 0x6970667358 0x22 SLT KECCAK256 CALLCODE REVERT STOP LOG3 DIFFICULTY MSTORE BASEFEE JUMPI 0xD 0x5E 0x27 SDIV EXTCODEHASH 0xBF 0xD7 0xEB SWAP3 SWAP13 RETURNDATASIZE RETURNDATACOPY GAS LOG0 PUSH26 0x88918ACC29A47B25D164736F6C63430008110033000000000000 "},"gasEstimates":{"creation":{"codeDepositCost":"709000","executionCost":"infinite","totalCost":"infinite"},"external":{"addMultipleRecipients(address[],uint256[])":"infinite","addRecipient(address,uint256)":"79893","claim()":"infinite","cumulativeAmountsToVest(uint256)":"2474","hasClaim()":"infinite","owner()":"2346","recipients(address)":"4680","renounceOwnership()":"infinite","setStartDate(uint256)":"25877","startDate()":"2308","totalPercentages()":"2329","totalRecipients()":"2350","transferOwnership(address)":"28362"},"internal":{"calculateAmounts()":"infinite"}},"methodIdentifiers":{"addMultipleRecipients(address[],uint256[])":"114a76a1","addRecipient(address,uint256)":"f7982243","claim()":"4e71d92d","cumulativeAmountsToVest(uint256)":"e3eb1599","hasClaim()":"3e2c3a5a","owner()":"8da5cb5b","recipients(address)":"eb820312","renounceOwnership()":"715018a6","setStartDate(uint256)":"82d95df5","startDate()":"0b97bc86","totalPercentages()":"56fcdae3","totalRecipients()":"f4f8495b","transferOwnership(address)":"f2fde38b"}},"storageLayout":{"storage":[{"astId":546,"contract":"contracts/Vesting.sol:Vesting","label":"_owner","offset":0,"slot":"0","type":"t_address"},{"astId":3482,"contract":"contracts/Vesting.sol:Vesting","label":"startDate","offset":0,"slot":"1","type":"t_uint256"},{"astId":3489,"contract":"contracts/Vesting.sol:Vesting","label":"cumulativeAmountsToVest","offset":0,"slot":"2","type":"t_array(t_uint256)35_storage"},{"astId":3491,"contract":"contracts/Vesting.sol:Vesting","label":"totalPercentages","offset":0,"slot":"37","type":"t_uint256"},{"astId":3494,"contract":"contracts/Vesting.sol:Vesting","label":"token","offset":0,"slot":"38","type":"t_contract(IERC20)1424"},{"astId":3501,"contract":"contracts/Vesting.sol:Vesting","label":"totalRecipients","offset":0,"slot":"39","type":"t_uint256"},{"astId":3506,"contract":"contracts/Vesting.sol:Vesting","label":"recipients","offset":0,"slot":"40","type":"t_mapping(t_address,t_struct(Recipient)3499_storage)"}],"types":{"t_address":{"encoding":"inplace","label":"address","numberOfBytes":"20"},"t_array(t_uint256)35_storage":{"base":"t_uint256","encoding":"inplace","label":"uint256[35]","numberOfBytes":"1120"},"t_contract(IERC20)1424":{"encoding":"inplace","label":"contract IERC20","numberOfBytes":"20"},"t_mapping(t_address,t_struct(Recipient)3499_storage)":{"encoding":"mapping","key":"t_address","label":"mapping(address => struct Vesting.Recipient)","numberOfBytes":"32","value":"t_struct(Recipient)3499_storage"},"t_struct(Recipient)3499_storage":{"encoding":"inplace","label":"struct Vesting.Recipient","members":[{"astId":3496,"contract":"contracts/Vesting.sol:Vesting","label":"withdrawnAmount","offset":0,"slot":"0","type":"t_uint256"},{"astId":3498,"contract":"contracts/Vesting.sol:Vesting","label":"withdrawPercentage","offset":0,"slot":"1","type":"t_uint256"}],"numberOfBytes":"64"},"t_uint256":{"encoding":"inplace","label":"uint256","numberOfBytes":"32"}}},"userdoc":{"kind":"user","methods":{},"version":1}}}}