{
  "_format": "hh-sol-artifact-1",
  "contractName": "BatchTransfer",
  "sourceName": "contracts/BatchTransfer.sol",
  "abi": [
    {
      "inputs": [
        {
          "internalType": "address",
          "name": "deployedTokenAddress",
          "type": "address"
        },
        {
          "internalType": "address[]",
          "name": "addresses",
          "type": "address[]"
        },
        {
          "internalType": "uint256[]",
          "name": "balances",
          "type": "uint256[]"
        }
      ],
      "name": "sendTokens",
      "outputs": [],
      "stateMutability": "nonpayable",
      "type": "function"
    }
  ],
  "bytecode": "0x608060405234801561001057600080fd5b50610559806100206000396000f3fe608060405234801561001057600080fd5b506004361061002b5760003560e01c8063e83f967b14610030575b600080fd5b61004361003e3660046103d2565b610045565b005b80518251146100c15760405162461bcd60e51b815260206004820152602b60248201527f5468652074776f20617272617973206d7573742062652077697468207468652060448201527f73616d65206c656e67746800000000000000000000000000000000000000000060648201526084015b60405180910390fd5b8260005b83518110156102d9576040516370a0823160e01b81523360048201526001600160a01b038316906370a0823190602401602060405180830381865afa158015610112573d6000803e3d6000fd5b505050506040513d601f19601f8201168201806040525081019061013691906104a4565b838281518110610148576101486104bd565b6020026020010151111561019e5760405162461bcd60e51b815260206004820152601260248201527f4e6f7420656e6f7567682062616c616e6365000000000000000000000000000060448201526064016100b8565b6000826001600160a01b03166323b872dd338785815181106101c2576101c26104bd565b60200260200101518786815181106101dc576101dc6104bd565b60209081029190910101516040517fffffffff0000000000000000000000000000000000000000000000000000000060e086901b1681526001600160a01b03938416600482015292909116602483015260448201526064016020604051808303816000875af1158015610253573d6000803e3d6000fd5b505050506040513d601f19601f8201168201806040525081019061027791906104d3565b9050806102c65760405162461bcd60e51b815260206004820152601f60248201527f546865207472616e7366657220776173206e6f74207375636365737366756c0060448201526064016100b8565b50806102d1816104fc565b9150506100c5565b5050505050565b80356001600160a01b03811681146102f757600080fd5b919050565b634e487b7160e01b600052604160045260246000fd5b604051601f8201601f1916810167ffffffffffffffff8111828210171561033b5761033b6102fc565b604052919050565b600067ffffffffffffffff82111561035d5761035d6102fc565b5060051b60200190565b600082601f83011261037857600080fd5b8135602061038d61038883610343565b610312565b82815260059290921b840181019181810190868411156103ac57600080fd5b8286015b848110156103c757803583529183019183016103b0565b509695505050505050565b6000806000606084860312156103e757600080fd5b6103f0846102e0565b925060208085013567ffffffffffffffff8082111561040e57600080fd5b818701915087601f83011261042257600080fd5b813561043061038882610343565b81815260059190911b8301840190848101908a83111561044f57600080fd5b938501935b8285101561047457610465856102e0565b82529385019390850190610454565b96505050604087013592508083111561048c57600080fd5b505061049a86828701610367565b9150509250925092565b6000602082840312156104b657600080fd5b5051919050565b634e487b7160e01b600052603260045260246000fd5b6000602082840312156104e557600080fd5b815180151581146104f557600080fd5b9392505050565b60006001820161051c57634e487b7160e01b600052601160045260246000fd5b506001019056fea264697066735822122003506031595208ba74956a3450f4ceb7ca17ce67bd007e4613fb2a5e8b71579c64736f6c63430008110033",
  "linkReferences": {},
  "deployedLinkReferences": {}
}