{
  "_format": "hh-sol-artifact-1",
  "contractName": "PercentageCalculator",
  "sourceName": "contracts/PercentageCalculator.sol",
  "abi": [
    {
      "inputs": [
        {
          "internalType": "uint256",
          "name": "_amount",
          "type": "uint256"
        },
        {
          "internalType": "uint256",
          "name": "_percentage",
          "type": "uint256"
        }
      ],
      "name": "div",
      "outputs": [
        {
          "internalType": "uint256",
          "name": "",
          "type": "uint256"
        }
      ],
      "stateMutability": "pure",
      "type": "function"
    }
  ],
  "bytecode": "0x61011461003a600b82828239805160001a60731461002d57634e487b7160e01b600052600060045260246000fd5b30600052607381538281f3fe730000000000000000000000000000000000000000301460806040526004361060335760003560e01c8063a391c15b146038575b600080fd5b604760433660046078565b6059565b60405190815260200160405180910390f35b6000620186a0606783856099565b606f919060bd565b90505b92915050565b60008060408385031215608a57600080fd5b50508035926020909101359150565b8082028115828204841417607257634e487b7160e01b600052601160045260246000fd5b60008260d957634e487b7160e01b600052601260045260246000fd5b50049056fea2646970667358221220bdcd80262a78b7eae33897853c4d9387b60577652186cc9417ff0b7471dd86fd64736f6c63430008110033",
  "linkReferences": {},
  "deployedLinkReferences": {}
}